{
  "address": "0xdEe897d5E6eaA6365F293c37cB3fA8335B9B8f3F",
  "abi": [
    {
      "inputs": [
        {
          "internalType": "string",
          "name": "name_",
          "type": "string"
        },
        {
          "internalType": "string",
          "name": "symbol_",
          "type": "string"
        },
        {
          "internalType": "uint8",
          "name": "decimals_",
          "type": "uint8"
        },
        {
          "internalType": "address",
          "name": "_childChainManagerProxy",
          "type": "address"
        }
      ],
      "stateMutability": "nonpayable",
      "type": "constructor"
    },
    {
      "anonymous": false,
      "inputs": [
        {
          "indexed": true,
          "internalType": "address",
          "name": "owner",
          "type": "address"
        },
        {
          "indexed": true,
          "internalType": "address",
          "name": "spender",
          "type": "address"
        },
        {
          "indexed": false,
          "internalType": "uint256",
          "name": "value",
          "type": "uint256"
        }
      ],
      "name": "Approval",
      "type": "event"
    },
    {
      "anonymous": false,
      "inputs": [
        {
          "indexed": true,
          "internalType": "address",
          "name": "from",
          "type": "address"
        },
        {
          "indexed": true,
          "internalType": "address",
          "name": "to",
          "type": "address"
        },
        {
          "indexed": false,
          "internalType": "uint256",
          "name": "value",
          "type": "uint256"
        }
      ],
      "name": "Transfer",
      "type": "event"
    },
    {
      "inputs": [
        {
          "internalType": "address",
          "name": "",
          "type": "address"
        },
        {
          "internalType": "address",
          "name": "",
          "type": "address"
        }
      ],
      "name": "_allowances",
      "outputs": [
        {
          "internalType": "uint256",
          "name": "",
          "type": "uint256"
        }
      ],
      "stateMutability": "view",
      "type": "function"
    },
    {
      "inputs": [
        {
          "internalType": "address",
          "name": "",
          "type": "address"
        }
      ],
      "name": "_balances",
      "outputs": [
        {
          "internalType": "uint256",
          "name": "",
          "type": "uint256"
        }
      ],
      "stateMutability": "view",
      "type": "function"
    },
    {
      "inputs": [],
      "name": "_decimals",
      "outputs": [
        {
          "internalType": "uint8",
          "name": "",
          "type": "uint8"
        }
      ],
      "stateMutability": "view",
      "type": "function"
    },
    {
      "inputs": [],
      "name": "_name",
      "outputs": [
        {
          "internalType": "string",
          "name": "",
          "type": "string"
        }
      ],
      "stateMutability": "view",
      "type": "function"
    },
    {
      "inputs": [],
      "name": "_symbol",
      "outputs": [
        {
          "internalType": "string",
          "name": "",
          "type": "string"
        }
      ],
      "stateMutability": "view",
      "type": "function"
    },
    {
      "inputs": [],
      "name": "_totalSupply",
      "outputs": [
        {
          "internalType": "uint256",
          "name": "",
          "type": "uint256"
        }
      ],
      "stateMutability": "view",
      "type": "function"
    },
    {
      "inputs": [
        {
          "internalType": "address",
          "name": "owner",
          "type": "address"
        },
        {
          "internalType": "address",
          "name": "spender",
          "type": "address"
        }
      ],
      "name": "allowance",
      "outputs": [
        {
          "internalType": "uint256",
          "name": "",
          "type": "uint256"
        }
      ],
      "stateMutability": "view",
      "type": "function"
    },
    {
      "inputs": [
        {
          "internalType": "address",
          "name": "spender",
          "type": "address"
        },
        {
          "internalType": "uint256",
          "name": "amount",
          "type": "uint256"
        }
      ],
      "name": "approve",
      "outputs": [
        {
          "internalType": "bool",
          "name": "",
          "type": "bool"
        }
      ],
      "stateMutability": "nonpayable",
      "type": "function"
    },
    {
      "inputs": [
        {
          "internalType": "address",
          "name": "account",
          "type": "address"
        }
      ],
      "name": "balanceOf",
      "outputs": [
        {
          "internalType": "uint256",
          "name": "",
          "type": "uint256"
        }
      ],
      "stateMutability": "view",
      "type": "function"
    },
    {
      "inputs": [],
      "name": "childChainManagerProxy",
      "outputs": [
        {
          "internalType": "address",
          "name": "",
          "type": "address"
        }
      ],
      "stateMutability": "view",
      "type": "function"
    },
    {
      "inputs": [],
      "name": "decimals",
      "outputs": [
        {
          "internalType": "uint8",
          "name": "",
          "type": "uint8"
        }
      ],
      "stateMutability": "view",
      "type": "function"
    },
    {
      "inputs": [
        {
          "internalType": "address",
          "name": "spender",
          "type": "address"
        },
        {
          "internalType": "uint256",
          "name": "subtractedValue",
          "type": "uint256"
        }
      ],
      "name": "decreaseAllowance",
      "outputs": [
        {
          "internalType": "bool",
          "name": "",
          "type": "bool"
        }
      ],
      "stateMutability": "nonpayable",
      "type": "function"
    },
    {
      "inputs": [
        {
          "internalType": "address",
          "name": "user",
          "type": "address"
        },
        {
          "internalType": "bytes",
          "name": "depositData",
          "type": "bytes"
        }
      ],
      "name": "deposit",
      "outputs": [],
      "stateMutability": "nonpayable",
      "type": "function"
    },
    {
      "inputs": [
        {
          "internalType": "address",
          "name": "spender",
          "type": "address"
        },
        {
          "internalType": "uint256",
          "name": "addedValue",
          "type": "uint256"
        }
      ],
      "name": "increaseAllowance",
      "outputs": [
        {
          "internalType": "bool",
          "name": "",
          "type": "bool"
        }
      ],
      "stateMutability": "nonpayable",
      "type": "function"
    },
    {
      "inputs": [],
      "name": "name",
      "outputs": [
        {
          "internalType": "string",
          "name": "",
          "type": "string"
        }
      ],
      "stateMutability": "view",
      "type": "function"
    },
    {
      "inputs": [],
      "name": "symbol",
      "outputs": [
        {
          "internalType": "string",
          "name": "",
          "type": "string"
        }
      ],
      "stateMutability": "view",
      "type": "function"
    },
    {
      "inputs": [],
      "name": "totalSupply",
      "outputs": [
        {
          "internalType": "uint256",
          "name": "",
          "type": "uint256"
        }
      ],
      "stateMutability": "view",
      "type": "function"
    },
    {
      "inputs": [
        {
          "internalType": "address",
          "name": "recipient",
          "type": "address"
        },
        {
          "internalType": "uint256",
          "name": "amount",
          "type": "uint256"
        }
      ],
      "name": "transfer",
      "outputs": [
        {
          "internalType": "bool",
          "name": "",
          "type": "bool"
        }
      ],
      "stateMutability": "nonpayable",
      "type": "function"
    },
    {
      "inputs": [
        {
          "internalType": "address",
          "name": "sender",
          "type": "address"
        },
        {
          "internalType": "address",
          "name": "recipient",
          "type": "address"
        },
        {
          "internalType": "uint256",
          "name": "amount",
          "type": "uint256"
        }
      ],
      "name": "transferFrom",
      "outputs": [
        {
          "internalType": "bool",
          "name": "",
          "type": "bool"
        }
      ],
      "stateMutability": "nonpayable",
      "type": "function"
    },
    {
      "inputs": [
        {
          "internalType": "address",
          "name": "newChildChainManagerProxy",
          "type": "address"
        }
      ],
      "name": "updateChildChainManager",
      "outputs": [],
      "stateMutability": "nonpayable",
      "type": "function"
    },
    {
      "inputs": [
        {
          "internalType": "uint256",
          "name": "amount",
          "type": "uint256"
        }
      ],
      "name": "withdraw",
      "outputs": [],
      "stateMutability": "nonpayable",
      "type": "function"
    }
  ],
  "transactionHash": "0x1f63169a5906d209ebe64786945f5d2139597b7f4039d902a929c0370c68f1af",
  "args": [
    "USDC",
    "USDC",
    "6",
    "0xb5505a6d998549090530911180f38aC5130101c6"
  ],
  "solcInputHash": "f97e93cc8ed0177af1f2dc521c85c721",
  "bytecode": "0x60806040523480156200001157600080fd5b50604051620012863803806200128683398101604081905262000034916200020c565b83838382600390805190602001906200004f929190620000bb565b50815162000065906004906020850190620000bb565b50600580546001600160a01b0390951661010002610100600160a81b031960ff90931660ff199096169590951791909116939093179092555050600680546001600160a01b0319163317905550620002fe915050565b828054620000c990620002ab565b90600052602060002090601f016020900481019282620000ed576000855562000138565b82601f106200010857805160ff191683800117855562000138565b8280016001018555821562000138579182015b82811115620001385782518255916020019190600101906200011b565b50620001469291506200014a565b5090565b5b808211156200014657600081556001016200014b565b600082601f83011262000172578081fd5b81516001600160401b03808211156200018f576200018f620002e8565b6040516020601f8401601f1916820181018381118382101715620001b757620001b7620002e8565b6040528382528584018101871015620001ce578485fd5b8492505b83831015620001f15785830181015182840182015291820191620001d2565b838311156200020257848185840101525b5095945050505050565b6000806000806080858703121562000222578384fd5b84516001600160401b038082111562000239578586fd5b620002478883890162000161565b955060208701519150808211156200025d578485fd5b506200026c8782880162000161565b935050604085015160ff8116811462000283578283fd5b60608601519092506001600160a01b0381168114620002a0578182fd5b939692955090935050565b600281046001821680620002c057607f821691505b60208210811415620002e257634e487b7160e01b600052602260045260246000fd5b50919050565b634e487b7160e01b600052604160045260246000fd5b610f78806200030e6000396000f3fe608060405234801561001057600080fd5b50600436106101375760003560e01c8063445a6797116100b8578063a457c2d71161007c578063a457c2d714610258578063a9059cbb1461026b578063b09f12661461027e578063cf2c52cb14610286578063d28d885214610299578063dd62ed3e146102a157610137565b8063445a67971461020257806362f629e7146102155780636ebcf6071461022a57806370a082311461023d57806395d89b411461025057610137565b80632e1a7d4d116100ff5780632e1a7d4d146101b5578063313ce567146101ca57806332424aa3146101df57806339509351146101e75780633eaaf86b146101fa57610137565b8063024c2ddd1461013c57806306fdde0314610165578063095ea7b31461017a57806318160ddd1461019a57806323b872dd146101a2575b600080fd5b61014f61014a366004610a65565b6102b4565b60405161015c9190610e89565b60405180910390f35b61016d6102d1565b60405161015c9190610bb0565b61018d610188366004610b50565b610363565b60405161015c9190610ba5565b61014f610380565b61018d6101b0366004610a97565b610386565b6101c86101c3366004610b79565b610426565b005b6101d26104ba565b60405161015c9190610e92565b6101d26104c3565b61018d6101f5366004610b50565b6104cc565b61014f61051b565b6101c8610210366004610a4b565b610521565b61021d610599565b60405161015c9190610b91565b61014f610238366004610a4b565b6105ad565b61014f61024b366004610a4b565b6105bf565b61016d6105de565b61018d610266366004610b50565b6105ed565b61018d610279366004610b50565b610668565b61016d61067c565b6101c8610294366004610ad2565b61070a565b61016d6107da565b61014f6102af366004610a65565b6107e7565b600160209081526000928352604080842090915290825290205481565b6060600380546102e090610ecf565b80601f016020809104026020016040519081016040528092919081815260200182805461030c90610ecf565b80156103595780601f1061032e57610100808354040283529160200191610359565b820191906000526020600020905b81548152906001019060200180831161033c57829003601f168201915b5050505050905090565b6000610377610370610812565b8484610816565b50600192915050565b60025490565b60006103938484846108ca565b6001600160a01b0384166000908152600160205260408120816103b4610812565b6001600160a01b03166001600160a01b03168152602001908152602001600020549050828110156104005760405162461bcd60e51b81526004016103f790610d73565b60405180910390fd5b61041b8561040c610812565b6104168685610eb8565b610816565b506001949350505050565b61045a81604051806060016040528060228152602001610f21602291393360009081526020819052604090205491906109e4565b336000908152602081905260409020556002546104779082610a10565b60025560405160009033907fddf252ad1be2c89b69c2b068fc378daa952ba7f163c4a11628f55a4df523b3ef906104af908590610e89565b60405180910390a350565b60055460ff1690565b60055460ff1681565b60006103776104d9610812565b8484600160006104e7610812565b6001600160a01b03908116825260208083019390935260409182016000908120918b16815292529020546104169190610ea0565b60025481565b6001600160a01b0381166105475760405162461bcd60e51b81526004016103f790610c46565b6006546001600160a01b031633146105715760405162461bcd60e51b81526004016103f790610d01565b600580546001600160a01b0390921661010002610100600160a81b0319909216919091179055565b60055461010090046001600160a01b031681565b60006020819052908152604090205481565b6001600160a01b0381166000908152602081905260409020545b919050565b6060600480546102e090610ecf565b600080600160006105fc610812565b6001600160a01b03908116825260208083019390935260409182016000908120918816815292529020549050828110156106485760405162461bcd60e51b81526004016103f790610e44565b61065e610653610812565b856104168685610eb8565b5060019392505050565b6000610377610675610812565b84846108ca565b6004805461068990610ecf565b80601f01602080910402602001604051908101604052809291908181526020018280546106b590610ecf565b80156107025780601f106106d757610100808354040283529160200191610702565b820191906000526020600020905b8154815290600101906020018083116106e557829003601f168201915b505050505081565b60055461010090046001600160a01b031633146107395760405162461bcd60e51b81526004016103f790610c88565b600061074782840184610b79565b6002549091506107579082610a23565b6002556001600160a01b03841660009081526020819052604090205461077d9082610a23565b6001600160a01b0385166000818152602081905260408082209390935591519091907fddf252ad1be2c89b69c2b068fc378daa952ba7f163c4a11628f55a4df523b3ef906107cc908590610e89565b60405180910390a350505050565b6003805461068990610ecf565b6001600160a01b03918216600090815260016020908152604080832093909416825291909152205490565b3390565b6001600160a01b03831661083c5760405162461bcd60e51b81526004016103f790610e00565b6001600160a01b0382166108625760405162461bcd60e51b81526004016103f790610cbf565b6001600160a01b0380841660008181526001602090815260408083209487168084529490915290819020849055517f8c5be1e5ebec7d5bd14f71427d1e84f3dd0314c0f7b2291e5b200ac8c7c3b925906108bd908590610e89565b60405180910390a3505050565b6001600160a01b0383166108f05760405162461bcd60e51b81526004016103f790610dbb565b6001600160a01b0382166109165760405162461bcd60e51b81526004016103f790610c03565b610921838383610a2f565b6001600160a01b0383166000908152602081905260409020548181101561095a5760405162461bcd60e51b81526004016103f790610d2d565b6109648282610eb8565b6001600160a01b03808616600090815260208190526040808220939093559085168152908120805484929061099a908490610ea0565b92505081905550826001600160a01b0316846001600160a01b03167fddf252ad1be2c89b69c2b068fc378daa952ba7f163c4a11628f55a4df523b3ef846040516107cc9190610e89565b60008184841115610a085760405162461bcd60e51b81526004016103f79190610bb0565b505050900390565b6000610a1c8284610eb8565b9392505050565b6000610a1c8284610ea0565b505050565b80356001600160a01b03811681146105d957600080fd5b600060208284031215610a5c578081fd5b610a1c82610a34565b60008060408385031215610a77578081fd5b610a8083610a34565b9150610a8e60208401610a34565b90509250929050565b600080600060608486031215610aab578081fd5b610ab484610a34565b9250610ac260208501610a34565b9150604084013590509250925092565b600080600060408486031215610ae6578283fd5b610aef84610a34565b9250602084013567ffffffffffffffff80821115610b0b578384fd5b818601915086601f830112610b1e578384fd5b813581811115610b2c578485fd5b876020828501011115610b3d578485fd5b6020830194508093505050509250925092565b60008060408385031215610b62578182fd5b610b6b83610a34565b946020939093013593505050565b600060208284031215610b8a578081fd5b5035919050565b6001600160a01b0391909116815260200190565b901515815260200190565b6000602080835283518082850152825b81811015610bdc57858101830151858201604001528201610bc0565b81811115610bed5783604083870101525b50601f01601f1916929092016040019392505050565b60208082526023908201527f45524332303a207472616e7366657220746f20746865207a65726f206164647260408201526265737360e81b606082015260800190565b60208082526022908201527f426164204368696c64436861696e4d616e6167657250726f7879206164647265604082015261737360f01b606082015260800190565b6020808252601d908201527f596f75277265206e6f7420616c6c6f77656420746f206465706f736974000000604082015260600190565b60208082526022908201527f45524332303a20617070726f766520746f20746865207a65726f206164647265604082015261737360f01b606082015260800190565b602080825260129082015271165bdd49dc99481b9bdd08185b1b1bddd95960721b604082015260600190565b60208082526026908201527f45524332303a207472616e7366657220616d6f756e7420657863656564732062604082015265616c616e636560d01b606082015260800190565b60208082526028908201527f45524332303a207472616e7366657220616d6f756e74206578636565647320616040820152676c6c6f77616e636560c01b606082015260800190565b60208082526025908201527f45524332303a207472616e736665722066726f6d20746865207a65726f206164604082015264647265737360d81b606082015260800190565b60208082526024908201527f45524332303a20617070726f76652066726f6d20746865207a65726f206164646040820152637265737360e01b606082015260800190565b60208082526025908201527f45524332303a2064656372656173656420616c6c6f77616e63652062656c6f77604082015264207a65726f60d81b606082015260800190565b90815260200190565b60ff91909116815260200190565b60008219821115610eb357610eb3610f0a565b500190565b600082821015610eca57610eca610f0a565b500390565b600281046001821680610ee357607f821691505b60208210811415610f0457634e487b7160e01b600052602260045260246000fd5b50919050565b634e487b7160e01b600052601160045260246000fdfe45524332303a206275726e20616d6f756e7420657863656564732062616c616e6365a2646970667358221220af388a3e940856fd96af80344170fa8ed717ab431a5e26bfd805e12e8d32f5c664736f6c63430008000033",
  "devdoc": {
    "kind": "dev",
    "methods": {
      "allowance(address,address)": {
        "details": "See {IERC20-allowance}."
      },
      "approve(address,uint256)": {
        "details": "See {IERC20-approve}. Requirements: - `spender` cannot be the zero address."
      },
      "balanceOf(address)": {
        "details": "See {IERC20-balanceOf}."
      },
      "decimals()": {
        "details": "Returns the number of decimals used to get its user representation. For example, if `decimals` equals `2`, a balance of `505` tokens should be displayed to a user as `5,05` (`505 / 10 ** 2`). Tokens usually opt for a value of 18, imitating the relationship between Ether and Wei. This is the value {ERC20} uses, unless this function is overloaded; NOTE: This information is only used for _display_ purposes: it in no way affects any of the arithmetic of the contract, including {IERC20-balanceOf} and {IERC20-transfer}."
      },
      "decreaseAllowance(address,uint256)": {
        "details": "Atomically decreases the allowance granted to `spender` by the caller. This is an alternative to {approve} that can be used as a mitigation for problems described in {IERC20-approve}. Emits an {Approval} event indicating the updated allowance. Requirements: - `spender` cannot be the zero address. - `spender` must have allowance for the caller of at least `subtractedValue`."
      },
      "increaseAllowance(address,uint256)": {
        "details": "Atomically increases the allowance granted to `spender` by the caller. This is an alternative to {approve} that can be used as a mitigation for problems described in {IERC20-approve}. Emits an {Approval} event indicating the updated allowance. Requirements: - `spender` cannot be the zero address."
      },
      "name()": {
        "details": "Returns the name of the token."
      },
      "symbol()": {
        "details": "Returns the symbol of the token, usually a shorter version of the name."
      },
      "totalSupply()": {
        "details": "See {IERC20-totalSupply}."
      },
      "transfer(address,uint256)": {
        "details": "See {IERC20-transfer}. Requirements: - `recipient` cannot be the zero address. - the caller must have a balance of at least `amount`."
      },
      "transferFrom(address,address,uint256)": {
        "details": "See {IERC20-transferFrom}. Emits an {Approval} event indicating the updated allowance. This is not required by the EIP. See the note at the beginning of {ERC20}. Requirements: - `sender` and `recipient` cannot be the zero address. - `sender` must have a balance of at least `amount`. - the caller must have allowance for ``sender``'s tokens of at least `amount`."
      }
    },
    "version": 1
  },
  "userdoc": {
    "kind": "user",
    "methods": {},
    "version": 1
  },
  "storageLayout": {
    "storage": [
      {
        "astId": 230,
        "contract": "contracts/Child/ChildErc20.sol:ChildERC20",
        "label": "_balances",
        "offset": 0,
        "slot": "0",
        "type": "t_mapping(t_address,t_uint256)"
      },
      {
        "astId": 236,
        "contract": "contracts/Child/ChildErc20.sol:ChildERC20",
        "label": "_allowances",
        "offset": 0,
        "slot": "1",
        "type": "t_mapping(t_address,t_mapping(t_address,t_uint256))"
      },
      {
        "astId": 238,
        "contract": "contracts/Child/ChildErc20.sol:ChildERC20",
        "label": "_totalSupply",
        "offset": 0,
        "slot": "2",
        "type": "t_uint256"
      },
      {
        "astId": 240,
        "contract": "contracts/Child/ChildErc20.sol:ChildERC20",
        "label": "_name",
        "offset": 0,
        "slot": "3",
        "type": "t_string_storage"
      },
      {
        "astId": 242,
        "contract": "contracts/Child/ChildErc20.sol:ChildERC20",
        "label": "_symbol",
        "offset": 0,
        "slot": "4",
        "type": "t_string_storage"
      },
      {
        "astId": 244,
        "contract": "contracts/Child/ChildErc20.sol:ChildERC20",
        "label": "_decimals",
        "offset": 0,
        "slot": "5",
        "type": "t_uint8"
      },
      {
        "astId": 10,
        "contract": "contracts/Child/ChildErc20.sol:ChildERC20",
        "label": "childChainManagerProxy",
        "offset": 1,
        "slot": "5",
        "type": "t_address"
      },
      {
        "astId": 12,
        "contract": "contracts/Child/ChildErc20.sol:ChildERC20",
        "label": "deployer",
        "offset": 0,
        "slot": "6",
        "type": "t_address"
      }
    ],
    "types": {
      "t_address": {
        "encoding": "inplace",
        "label": "address",
        "numberOfBytes": "20"
      },
      "t_mapping(t_address,t_mapping(t_address,t_uint256))": {
        "encoding": "mapping",
        "key": "t_address",
        "label": "mapping(address => mapping(address => uint256))",
        "numberOfBytes": "32",
        "value": "t_mapping(t_address,t_uint256)"
      },
      "t_mapping(t_address,t_uint256)": {
        "encoding": "mapping",
        "key": "t_address",
        "label": "mapping(address => uint256)",
        "numberOfBytes": "32",
        "value": "t_uint256"
      },
      "t_string_storage": {
        "encoding": "bytes",
        "label": "string",
        "numberOfBytes": "32"
      },
      "t_uint256": {
        "encoding": "inplace",
        "label": "uint256",
        "numberOfBytes": "32"
      },
      "t_uint8": {
        "encoding": "inplace",
        "label": "uint8",
        "numberOfBytes": "1"
      }
    }
  }
}